{
  "contractName": "Ads",
  "abi": [
    {
      "inputs": [
        {
          "internalType": "uint256",
          "name": "length",
          "type": "uint256"
        }
      ],
      "stateMutability": "nonpayable",
      "type": "constructor"
    },
    {
      "inputs": [
        {
          "internalType": "uint256",
          "name": "",
          "type": "uint256"
        }
      ],
      "name": "ads",
      "outputs": [
        {
          "internalType": "uint256",
          "name": "id",
          "type": "uint256"
        },
        {
          "internalType": "string",
          "name": "title",
          "type": "string"
        },
        {
          "internalType": "string",
          "name": "imageCID",
          "type": "string"
        },
        {
          "internalType": "string",
          "name": "description",
          "type": "string"
        },
        {
          "internalType": "string",
          "name": "siteUrl",
          "type": "string"
        },
        {
          "internalType": "address",
          "name": "owner",
          "type": "address"
        },
        {
          "internalType": "uint256",
          "name": "price",
          "type": "uint256"
        }
      ],
      "stateMutability": "view",
      "type": "function",
      "constant": true
    },
    {
      "inputs": [
        {
          "internalType": "uint256",
          "name": "",
          "type": "uint256"
        }
      ],
      "name": "ids",
      "outputs": [
        {
          "internalType": "uint256",
          "name": "",
          "type": "uint256"
        }
      ],
      "stateMutability": "view",
      "type": "function",
      "constant": true
    },
    {
      "inputs": [],
      "name": "lastId",
      "outputs": [
        {
          "internalType": "uint256",
          "name": "",
          "type": "uint256"
        }
      ],
      "stateMutability": "view",
      "type": "function",
      "constant": true
    },
    {
      "inputs": [
        {
          "internalType": "uint256",
          "name": "id",
          "type": "uint256"
        }
      ],
      "name": "getAd",
      "outputs": [
        {
          "components": [
            {
              "internalType": "uint256",
              "name": "id",
              "type": "uint256"
            },
            {
              "internalType": "string",
              "name": "title",
              "type": "string"
            },
            {
              "internalType": "string",
              "name": "imageCID",
              "type": "string"
            },
            {
              "internalType": "string",
              "name": "description",
              "type": "string"
            },
            {
              "internalType": "string",
              "name": "siteUrl",
              "type": "string"
            },
            {
              "internalType": "address",
              "name": "owner",
              "type": "address"
            },
            {
              "internalType": "uint256",
              "name": "price",
              "type": "uint256"
            }
          ],
          "internalType": "struct Ads.Ad",
          "name": "",
          "type": "tuple"
        }
      ],
      "stateMutability": "view",
      "type": "function",
      "constant": true
    },
    {
      "inputs": [],
      "name": "getAds",
      "outputs": [
        {
          "components": [
            {
              "internalType": "uint256",
              "name": "id",
              "type": "uint256"
            },
            {
              "internalType": "string",
              "name": "title",
              "type": "string"
            },
            {
              "internalType": "string",
              "name": "imageCID",
              "type": "string"
            },
            {
              "internalType": "string",
              "name": "description",
              "type": "string"
            },
            {
              "internalType": "string",
              "name": "siteUrl",
              "type": "string"
            },
            {
              "internalType": "address",
              "name": "owner",
              "type": "address"
            },
            {
              "internalType": "uint256",
              "name": "price",
              "type": "uint256"
            }
          ],
          "internalType": "struct Ads.Ad[]",
          "name": "",
          "type": "tuple[]"
        }
      ],
      "stateMutability": "view",
      "type": "function",
      "constant": true
    },
    {
      "inputs": [
        {
          "internalType": "uint256",
          "name": "id",
          "type": "uint256"
        },
        {
          "internalType": "string",
          "name": "title",
          "type": "string"
        },
        {
          "internalType": "string",
          "name": "imageCID",
          "type": "string"
        },
        {
          "internalType": "string",
          "name": "description",
          "type": "string"
        },
        {
          "internalType": "string",
          "name": "siteUrl",
          "type": "string"
        }
      ],
      "name": "buy",
      "outputs": [],
      "stateMutability": "payable",
      "type": "function",
      "payable": true
    },
    {
      "inputs": [
        {
          "internalType": "uint256",
          "name": "length",
          "type": "uint256"
        }
      ],
      "name": "expand",
      "outputs": [],
      "stateMutability": "nonpayable",
      "type": "function"
    }
  ],
  "bytecode": "0x60806040523480156200001157600080fd5b50604051620018cc380380620018cc83398181016040528101906200003791906200013e565b62000048816200004f60201b60201c565b506200024a565b600060016002546200006291906200019f565b9050600082826200007491906200019f565b905060008290505b81811015620000f8576001819080600181540180825580915050600190039060005260206000200160009091909190915055806000808381526020019081526020016000206000018190555060026000815480929190620000dd90620001fc565b91905055508080620000ef90620001fc565b9150506200007c565b50505050565b600080fd5b6000819050919050565b620001188162000103565b81146200012457600080fd5b50565b60008151905062000138816200010d565b92915050565b600060208284031215620001575762000156620000fe565b5b6000620001678482850162000127565b91505092915050565b7f4e487b7100000000000000000000000000000000000000000000000000000000600052601160045260246000fd5b6000620001ac8262000103565b9150620001b98362000103565b9250827fffffffffffffffffffffffffffffffffffffffffffffffffffffffffffffffff03821115620001f157620001f062000170565b5b828201905092915050565b6000620002098262000103565b91507fffffffffffffffffffffffffffffffffffffffffffffffffffffffffffffffff8214156200023f576200023e62000170565b5b600182019050919050565b611672806200025a6000396000f3fe6080604052600436106100705760003560e01c80637ede1c071161004e5780637ede1c071461010c578063c1292cc314610149578063fab11b8214610174578063fac333ac1461019057610070565b80630955ae991461007557806311a7a4c0146100a0578063682904a5146100e3575b600080fd5b34801561008157600080fd5b5061008a6101cd565b604051610097919061104e565b60405180910390f35b3480156100ac57600080fd5b506100c760048036038101906100c291906110b0565b610568565b6040516100da9796959493929190611145565b60405180910390f35b3480156100ef57600080fd5b5061010a600480360381019061010591906110b0565b6107ea565b005b34801561011857600080fd5b50610133600480360381019061012e91906110b0565b61088f565b6040516101409190611281565b60405180910390f35b34801561015557600080fd5b5061015e610b6d565b60405161016b91906112a3565b60405180910390f35b61018e600480360381019061018991906113f3565b610b73565b005b34801561019c57600080fd5b506101b760048036038101906101b291906110b0565b610cce565b6040516101c491906112a3565b60405180910390f35b6060600060025467ffffffffffffffff8111156101ed576101ec6112c8565b5b60405190808252806020026020018201604052801561022657816020015b610213610cf2565b81526020019060019003908161020b5790505b50905060005b6002548110156105605760006001828154811061024c5761024b6114de565b5b9060005260206000200154905060008060008381526020019081526020016000206040518060e0016040529081600082015481526020016001820180546102929061153c565b80601f01602080910402602001604051908101604052809291908181526020018280546102be9061153c565b801561030b5780601f106102e05761010080835404028352916020019161030b565b820191906000526020600020905b8154815290600101906020018083116102ee57829003601f168201915b505050505081526020016002820180546103249061153c565b80601f01602080910402602001604051908101604052809291908181526020018280546103509061153c565b801561039d5780601f106103725761010080835404028352916020019161039d565b820191906000526020600020905b81548152906001019060200180831161038057829003601f168201915b505050505081526020016003820180546103b69061153c565b80601f01602080910402602001604051908101604052809291908181526020018280546103e29061153c565b801561042f5780601f106104045761010080835404028352916020019161042f565b820191906000526020600020905b81548152906001019060200180831161041257829003601f168201915b505050505081526020016004820180546104489061153c565b80601f01602080910402602001604051908101604052809291908181526020018280546104749061153c565b80156104c15780601f10610496576101008083540402835291602001916104c1565b820191906000526020600020905b8154815290600101906020018083116104a457829003601f168201915b505050505081526020016005820160009054906101000a900473ffffffffffffffffffffffffffffffffffffffff1673ffffffffffffffffffffffffffffffffffffffff1673ffffffffffffffffffffffffffffffffffffffff1681526020016006820154815250509050808484815181106105405761053f6114de565b5b6020026020010181905250505080806105589061159d565b91505061022c565b508091505090565b60006020528060005260406000206000915090508060000154908060010180546105919061153c565b80601f01602080910402602001604051908101604052809291908181526020018280546105bd9061153c565b801561060a5780601f106105df5761010080835404028352916020019161060a565b820191906000526020600020905b8154815290600101906020018083116105ed57829003601f168201915b50505050509080600201805461061f9061153c565b80601f016020809104026020016040519081016040528092919081815260200182805461064b9061153c565b80156106985780601f1061066d57610100808354040283529160200191610698565b820191906000526020600020905b81548152906001019060200180831161067b57829003601f168201915b5050505050908060030180546106ad9061153c565b80601f01602080910402602001604051908101604052809291908181526020018280546106d99061153c565b80156107265780601f106106fb57610100808354040283529160200191610726565b820191906000526020600020905b81548152906001019060200180831161070957829003601f168201915b50505050509080600401805461073b9061153c565b80601f01602080910402602001604051908101604052809291908181526020018280546107679061153c565b80156107b45780601f10610789576101008083540402835291602001916107b4565b820191906000526020600020905b81548152906001019060200180831161079757829003601f168201915b5050505050908060050160009054906101000a900473ffffffffffffffffffffffffffffffffffffffff16908060060154905087565b600060016002546107fb91906115e6565b90506000828261080b91906115e6565b905060008290505b818110156108895760018190806001815401808255809150506001900390600052602060002001600090919091909150558060008083815260200190815260200160002060000181905550600260008154809291906108719061159d565b919050555080806108819061159d565b915050610813565b50505050565b610897610cf2565b6000808381526020019081526020016000206040518060e0016040529081600082015481526020016001820180546108ce9061153c565b80601f01602080910402602001604051908101604052809291908181526020018280546108fa9061153c565b80156109475780601f1061091c57610100808354040283529160200191610947565b820191906000526020600020905b81548152906001019060200180831161092a57829003601f168201915b505050505081526020016002820180546109609061153c565b80601f016020809104026020016040519081016040528092919081815260200182805461098c9061153c565b80156109d95780601f106109ae576101008083540402835291602001916109d9565b820191906000526020600020905b8154815290600101906020018083116109bc57829003601f168201915b505050505081526020016003820180546109f29061153c565b80601f0160208091040260200160405190810160405280929190818152602001828054610a1e9061153c565b8015610a6b5780601f10610a4057610100808354040283529160200191610a6b565b820191906000526020600020905b815481529060010190602001808311610a4e57829003601f168201915b50505050508152602001600482018054610a849061153c565b80601f0160208091040260200160405190810160405280929190818152602001828054610ab09061153c565b8015610afd5780601f10610ad257610100808354040283529160200191610afd565b820191906000526020600020905b815481529060010190602001808311610ae057829003601f168201915b505050505081526020016005820160009054906101000a900473ffffffffffffffffffffffffffffffffffffffff1673ffffffffffffffffffffffffffffffffffffffff1673ffffffffffffffffffffffffffffffffffffffff1681526020016006820154815250509050919050565b60025481565b600080868152602001908152602001600020600601543411610b9457600080fd5b60006040518060e001604052808781526020018681526020018581526020018481526020018381526020013373ffffffffffffffffffffffffffffffffffffffff16815260200134815250905080600080888152602001908152602001600020600082015181600001556020820151816001019080519060200190610c1a929190610d45565b506040820151816002019080519060200190610c37929190610d45565b506060820151816003019080519060200190610c54929190610d45565b506080820151816004019080519060200190610c71929190610d45565b5060a08201518160050160006101000a81548173ffffffffffffffffffffffffffffffffffffffff021916908373ffffffffffffffffffffffffffffffffffffffff16021790555060c08201518160060155905050505050505050565b60018181548110610cde57600080fd5b906000526020600020016000915090505481565b6040518060e001604052806000815260200160608152602001606081526020016060815260200160608152602001600073ffffffffffffffffffffffffffffffffffffffff168152602001600081525090565b828054610d519061153c565b90600052602060002090601f016020900481019282610d735760008555610dba565b82601f10610d8c57805160ff1916838001178555610dba565b82800160010185558215610dba579182015b82811115610db9578251825591602001919060010190610d9e565b5b509050610dc79190610dcb565b5090565b5b80821115610de4576000816000905550600101610dcc565b5090565b600081519050919050565b600082825260208201905092915050565b6000819050602082019050919050565b6000819050919050565b610e2781610e14565b82525050565b600081519050919050565b600082825260208201905092915050565b60005b83811015610e67578082015181840152602081019050610e4c565b83811115610e76576000848401525b50505050565b6000601f19601f8301169050919050565b6000610e9882610e2d565b610ea28185610e38565b9350610eb2818560208601610e49565b610ebb81610e7c565b840191505092915050565b600073ffffffffffffffffffffffffffffffffffffffff82169050919050565b6000610ef182610ec6565b9050919050565b610f0181610ee6565b82525050565b600060e083016000830151610f1f6000860182610e1e565b5060208301518482036020860152610f378282610e8d565b91505060408301518482036040860152610f518282610e8d565b91505060608301518482036060860152610f6b8282610e8d565b91505060808301518482036080860152610f858282610e8d565b91505060a0830151610f9a60a0860182610ef8565b5060c0830151610fad60c0860182610e1e565b508091505092915050565b6000610fc48383610f07565b905092915050565b6000602082019050919050565b6000610fe482610de8565b610fee8185610df3565b93508360208202850161100085610e04565b8060005b8581101561103c578484038952815161101d8582610fb8565b945061102883610fcc565b925060208a01995050600181019050611004565b50829750879550505050505092915050565b600060208201905081810360008301526110688184610fd9565b905092915050565b6000604051905090565b600080fd5b600080fd5b61108d81610e14565b811461109857600080fd5b50565b6000813590506110aa81611084565b92915050565b6000602082840312156110c6576110c561107a565b5b60006110d48482850161109b565b91505092915050565b6110e681610e14565b82525050565b600082825260208201905092915050565b600061110882610e2d565b61111281856110ec565b9350611122818560208601610e49565b61112b81610e7c565b840191505092915050565b61113f81610ee6565b82525050565b600060e08201905061115a600083018a6110dd565b818103602083015261116c81896110fd565b9050818103604083015261118081886110fd565b9050818103606083015261119481876110fd565b905081810360808301526111a881866110fd565b90506111b760a0830185611136565b6111c460c08301846110dd565b98975050505050505050565b600060e0830160008301516111e86000860182610e1e565b50602083015184820360208601526112008282610e8d565b9150506040830151848203604086015261121a8282610e8d565b915050606083015184820360608601526112348282610e8d565b9150506080830151848203608086015261124e8282610e8d565b91505060a083015161126360a0860182610ef8565b5060c083015161127660c0860182610e1e565b508091505092915050565b6000602082019050818103600083015261129b81846111d0565b905092915050565b60006020820190506112b860008301846110dd565b92915050565b600080fd5b600080fd5b7f4e487b7100000000000000000000000000000000000000000000000000000000600052604160045260246000fd5b61130082610e7c565b810181811067ffffffffffffffff8211171561131f5761131e6112c8565b5b80604052505050565b6000611332611070565b905061133e82826112f7565b919050565b600067ffffffffffffffff82111561135e5761135d6112c8565b5b61136782610e7c565b9050602081019050919050565b82818337600083830152505050565b600061139661139184611343565b611328565b9050828152602081018484840111156113b2576113b16112c3565b5b6113bd848285611374565b509392505050565b600082601f8301126113da576113d96112be565b5b81356113ea848260208601611383565b91505092915050565b600080600080600060a0868803121561140f5761140e61107a565b5b600061141d8882890161109b565b955050602086013567ffffffffffffffff81111561143e5761143d61107f565b5b61144a888289016113c5565b945050604086013567ffffffffffffffff81111561146b5761146a61107f565b5b611477888289016113c5565b935050606086013567ffffffffffffffff8111156114985761149761107f565b5b6114a4888289016113c5565b925050608086013567ffffffffffffffff8111156114c5576114c461107f565b5b6114d1888289016113c5565b9150509295509295909350565b7f4e487b7100000000000000000000000000000000000000000000000000000000600052603260045260246000fd5b7f4e487b7100000000000000000000000000000000000000000000000000000000600052602260045260246000fd5b6000600282049050600182168061155457607f821691505b602082108114156115685761156761150d565b5b50919050565b7f4e487b7100000000000000000000000000000000000000000000000000000000600052601160045260246000fd5b60006115a882610e14565b91507fffffffffffffffffffffffffffffffffffffffffffffffffffffffffffffffff8214156115db576115da61156e565b5b600182019050919050565b60006115f182610e14565b91506115fc83610e14565b9250827fffffffffffffffffffffffffffffffffffffffffffffffffffffffffffffffff038211156116315761163061156e565b5b82820190509291505056fea2646970667358221220e4144960afb0992250cdb569c84e16a80aee52998b56aed44cc56b571ed3d35664736f6c634300080b0033",
  "immutableReferences": {},
  "source": "// SPDX-License-Identifier: MIT\npragma solidity ^0.8.11;\n\ncontract Ads {\n    struct Ad {\n        uint256 id;\n        string title;\n        string imageCID;\n        string description;\n        string siteUrl;\n        address owner;\n        uint256 price;\n    }\n    mapping(uint256 => Ad) public ads;\n    uint256[] public ids;\n\n    uint256 public lastId;\n\n    constructor(uint256 length) {\n        expand(length);\n    }\n\n    function getAd(uint256 id) public view returns (Ad memory) {\n        return ads[id];\n    }\n\n    function getAds() public view returns (Ad[] memory) {\n        Ad[] memory res = new Ad[](lastId);\n\n        for (uint256 i = 0; i < lastId; i++) {\n            uint256 id = ids[i];\n            Ad memory ad = ads[id];\n            res[i] = ad;\n        }\n\n        return res;\n    }\n\n    function buy(\n        uint256 id,\n        string memory title,\n        string memory imageCID,\n        string memory description,\n        string memory siteUrl\n    ) public payable {\n        require(msg.value > ads[id].price);\n        Ad memory newAd = Ad(\n            id,\n            title,\n            imageCID,\n            description,\n            siteUrl,\n            msg.sender,\n            msg.value\n        );\n        ads[id] = newAd;\n    }\n\n    function expand(uint256 length) public {\n        uint256 start = lastId + 1;\n        uint256 end = start + length;\n        for (uint256 i = start; i < end; i++) {\n            ids.push(i);\n            ads[i].id = i;\n            lastId++;\n        }\n    }\n}\n",
  "sourcePath": "/Users/ryamaguchi/portfolio/auction-dapp/packages/truffle/contracts/Ads.sol",
  "compiler": {
    "name": "solc",
    "version": "0.8.11+commit.d7f03943.Emscripten.clang"
  },
  "schemaVersion": "3.4.5",
  "updatedAt": "2022-02-23T12:52:12.960Z",
  "networkType": "ethereum",
  "devdoc": {
    "kind": "dev",
    "methods": {},
    "version": 1
  },
  "userdoc": {
    "kind": "user",
    "methods": {},
    "version": 1
  }
}